{
  "_format": "hh-sol-artifact-1",
  "contractName": "ZenchainNFT",
  "sourceName": "contracts/ZenchainNFT.sol",
  "abi": [
    {
      "inputs": [
        {
          "internalType": "string",
          "name": "name",
          "type": "string"
        },
        {
          "internalType": "string",
          "name": "symbol",
          "type": "string"
        }
      ],
      "stateMutability": "nonpayable",
      "type": "constructor"
    },
    {
      "inputs": [
        {
          "internalType": "address",
          "name": "sender",
          "type": "address"
        },
        {
          "internalType": "uint256",
          "name": "tokenId",
          "type": "uint256"
        },
        {
          "internalType": "address",
          "name": "owner",
          "type": "address"
        }
      ],
      "name": "ERC721IncorrectOwner",
      "type": "error"
    },
    {
      "inputs": [
        {
          "internalType": "address",
          "name": "operator",
          "type": "address"
        },
        {
          "internalType": "uint256",
          "name": "tokenId",
          "type": "uint256"
        }
      ],
      "name": "ERC721InsufficientApproval",
      "type": "error"
    },
    {
      "inputs": [
        {
          "internalType": "address",
          "name": "approver",
          "type": "address"
        }
      ],
      "name": "ERC721InvalidApprover",
      "type": "error"
    },
    {
      "inputs": [
        {
          "internalType": "address",
          "name": "operator",
          "type": "address"
        }
      ],
      "name": "ERC721InvalidOperator",
      "type": "error"
    },
    {
      "inputs": [
        {
          "internalType": "address",
          "name": "owner",
          "type": "address"
        }
      ],
      "name": "ERC721InvalidOwner",
      "type": "error"
    },
    {
      "inputs": [
        {
          "internalType": "address",
          "name": "receiver",
          "type": "address"
        }
      ],
      "name": "ERC721InvalidReceiver",
      "type": "error"
    },
    {
      "inputs": [
        {
          "internalType": "address",
          "name": "sender",
          "type": "address"
        }
      ],
      "name": "ERC721InvalidSender",
      "type": "error"
    },
    {
      "inputs": [
        {
          "internalType": "uint256",
          "name": "tokenId",
          "type": "uint256"
        }
      ],
      "name": "ERC721NonexistentToken",
      "type": "error"
    },
    {
      "anonymous": false,
      "inputs": [
        {
          "indexed": true,
          "internalType": "address",
          "name": "owner",
          "type": "address"
        },
        {
          "indexed": true,
          "internalType": "address",
          "name": "approved",
          "type": "address"
        },
        {
          "indexed": true,
          "internalType": "uint256",
          "name": "tokenId",
          "type": "uint256"
        }
      ],
      "name": "Approval",
      "type": "event"
    },
    {
      "anonymous": false,
      "inputs": [
        {
          "indexed": true,
          "internalType": "address",
          "name": "owner",
          "type": "address"
        },
        {
          "indexed": true,
          "internalType": "address",
          "name": "operator",
          "type": "address"
        },
        {
          "indexed": false,
          "internalType": "bool",
          "name": "approved",
          "type": "bool"
        }
      ],
      "name": "ApprovalForAll",
      "type": "event"
    },
    {
      "anonymous": false,
      "inputs": [
        {
          "indexed": false,
          "internalType": "uint256",
          "name": "_fromTokenId",
          "type": "uint256"
        },
        {
          "indexed": false,
          "internalType": "uint256",
          "name": "_toTokenId",
          "type": "uint256"
        }
      ],
      "name": "BatchMetadataUpdate",
      "type": "event"
    },
    {
      "anonymous": false,
      "inputs": [
        {
          "indexed": false,
          "internalType": "uint256",
          "name": "_tokenId",
          "type": "uint256"
        }
      ],
      "name": "MetadataUpdate",
      "type": "event"
    },
    {
      "anonymous": false,
      "inputs": [
        {
          "indexed": false,
          "internalType": "uint256",
          "name": "tokenId",
          "type": "uint256"
        }
      ],
      "name": "NFTBurned",
      "type": "event"
    },
    {
      "anonymous": false,
      "inputs": [
        {
          "indexed": true,
          "internalType": "address",
          "name": "to",
          "type": "address"
        },
        {
          "indexed": false,
          "internalType": "uint256",
          "name": "tokenId",
          "type": "uint256"
        },
        {
          "indexed": false,
          "internalType": "string",
          "name": "TokenBaseURI",
          "type": "string"
        }
      ],
      "name": "NFTMinted",
      "type": "event"
    },
    {
      "anonymous": false,
      "inputs": [
        {
          "indexed": true,
          "internalType": "address",
          "name": "from",
          "type": "address"
        },
        {
          "indexed": true,
          "internalType": "address",
          "name": "to",
          "type": "address"
        },
        {
          "indexed": true,
          "internalType": "uint256",
          "name": "tokenId",
          "type": "uint256"
        }
      ],
      "name": "Transfer",
      "type": "event"
    },
    {
      "inputs": [
        {
          "internalType": "address",
          "name": "to",
          "type": "address"
        },
        {
          "internalType": "uint256",
          "name": "tokenId",
          "type": "uint256"
        }
      ],
      "name": "approve",
      "outputs": [],
      "stateMutability": "nonpayable",
      "type": "function"
    },
    {
      "inputs": [
        {
          "internalType": "address",
          "name": "owner",
          "type": "address"
        }
      ],
      "name": "balanceOf",
      "outputs": [
        {
          "internalType": "uint256",
          "name": "",
          "type": "uint256"
        }
      ],
      "stateMutability": "view",
      "type": "function"
    },
    {
      "inputs": [
        {
          "internalType": "uint256",
          "name": "tokenId",
          "type": "uint256"
        }
      ],
      "name": "burn",
      "outputs": [],
      "stateMutability": "nonpayable",
      "type": "function"
    },
    {
      "inputs": [
        {
          "internalType": "uint256",
          "name": "tokenId",
          "type": "uint256"
        }
      ],
      "name": "getApproved",
      "outputs": [
        {
          "internalType": "address",
          "name": "",
          "type": "address"
        }
      ],
      "stateMutability": "view",
      "type": "function"
    },
    {
      "inputs": [
        {
          "internalType": "address",
          "name": "owner",
          "type": "address"
        },
        {
          "internalType": "address",
          "name": "operator",
          "type": "address"
        }
      ],
      "name": "isApprovedForAll",
      "outputs": [
        {
          "internalType": "bool",
          "name": "",
          "type": "bool"
        }
      ],
      "stateMutability": "view",
      "type": "function"
    },
    {
      "inputs": [
        {
          "internalType": "address",
          "name": "to",
          "type": "address"
        },
        {
          "internalType": "string",
          "name": "TokenBaseURI",
          "type": "string"
        }
      ],
      "name": "mintNFT",
      "outputs": [
        {
          "internalType": "uint256",
          "name": "",
          "type": "uint256"
        }
      ],
      "stateMutability": "nonpayable",
      "type": "function"
    },
    {
      "inputs": [],
      "name": "name",
      "outputs": [
        {
          "internalType": "string",
          "name": "",
          "type": "string"
        }
      ],
      "stateMutability": "view",
      "type": "function"
    },
    {
      "inputs": [
        {
          "internalType": "uint256",
          "name": "tokenId",
          "type": "uint256"
        }
      ],
      "name": "ownerOf",
      "outputs": [
        {
          "internalType": "address",
          "name": "",
          "type": "address"
        }
      ],
      "stateMutability": "view",
      "type": "function"
    },
    {
      "inputs": [
        {
          "internalType": "address",
          "name": "from",
          "type": "address"
        },
        {
          "internalType": "address",
          "name": "to",
          "type": "address"
        },
        {
          "internalType": "uint256",
          "name": "tokenId",
          "type": "uint256"
        }
      ],
      "name": "safeTransferFrom",
      "outputs": [],
      "stateMutability": "nonpayable",
      "type": "function"
    },
    {
      "inputs": [
        {
          "internalType": "address",
          "name": "from",
          "type": "address"
        },
        {
          "internalType": "address",
          "name": "to",
          "type": "address"
        },
        {
          "internalType": "uint256",
          "name": "tokenId",
          "type": "uint256"
        },
        {
          "internalType": "bytes",
          "name": "data",
          "type": "bytes"
        }
      ],
      "name": "safeTransferFrom",
      "outputs": [],
      "stateMutability": "nonpayable",
      "type": "function"
    },
    {
      "inputs": [
        {
          "internalType": "address",
          "name": "operator",
          "type": "address"
        },
        {
          "internalType": "bool",
          "name": "approved",
          "type": "bool"
        }
      ],
      "name": "setApprovalForAll",
      "outputs": [],
      "stateMutability": "nonpayable",
      "type": "function"
    },
    {
      "inputs": [
        {
          "internalType": "bytes4",
          "name": "interfaceId",
          "type": "bytes4"
        }
      ],
      "name": "supportsInterface",
      "outputs": [
        {
          "internalType": "bool",
          "name": "",
          "type": "bool"
        }
      ],
      "stateMutability": "view",
      "type": "function"
    },
    {
      "inputs": [],
      "name": "symbol",
      "outputs": [
        {
          "internalType": "string",
          "name": "",
          "type": "string"
        }
      ],
      "stateMutability": "view",
      "type": "function"
    },
    {
      "inputs": [],
      "name": "tokenCounter",
      "outputs": [
        {
          "internalType": "uint256",
          "name": "",
          "type": "uint256"
        }
      ],
      "stateMutability": "view",
      "type": "function"
    },
    {
      "inputs": [
        {
          "internalType": "uint256",
          "name": "tokenId",
          "type": "uint256"
        }
      ],
      "name": "tokenURI",
      "outputs": [
        {
          "internalType": "string",
          "name": "",
          "type": "string"
        }
      ],
      "stateMutability": "view",
      "type": "function"
    },
    {
      "inputs": [
        {
          "internalType": "address",
          "name": "from",
          "type": "address"
        },
        {
          "internalType": "address",
          "name": "to",
          "type": "address"
        },
        {
          "internalType": "uint256",
          "name": "tokenId",
          "type": "uint256"
        }
      ],
      "name": "transferFrom",
      "outputs": [],
      "stateMutability": "nonpayable",
      "type": "function"
    }
  ],
  "bytecode": "0x60806040523480156200001157600080fd5b5060405162002c4e38038062002c4e833981810160405281019062000037919062000202565b818181600090816200004a9190620004d2565b5080600190816200005c9190620004d2565b50505060016007819055505050620005b9565b6000604051905090565b600080fd5b600080fd5b600080fd5b600080fd5b6000601f19601f8301169050919050565b7f4e487b7100000000000000000000000000000000000000000000000000000000600052604160045260246000fd5b620000d8826200008d565b810181811067ffffffffffffffff82111715620000fa57620000f96200009e565b5b80604052505050565b60006200010f6200006f565b90506200011d8282620000cd565b919050565b600067ffffffffffffffff82111562000140576200013f6200009e565b5b6200014b826200008d565b9050602081019050919050565b60005b83811015620001785780820151818401526020810190506200015b565b60008484015250505050565b60006200019b620001958462000122565b62000103565b905082815260208101848484011115620001ba57620001b962000088565b5b620001c784828562000158565b509392505050565b600082601f830112620001e757620001e662000083565b5b8151620001f984826020860162000184565b91505092915050565b600080604083850312156200021c576200021b62000079565b5b600083015167ffffffffffffffff8111156200023d576200023c6200007e565b5b6200024b85828601620001cf565b925050602083015167ffffffffffffffff8111156200026f576200026e6200007e565b5b6200027d85828601620001cf565b9150509250929050565b600081519050919050565b7f4e487b7100000000000000000000000000000000000000000000000000000000600052602260045260246000fd5b60006002820490506001821680620002da57607f821691505b602082108103620002f057620002ef62000292565b5b50919050565b60008190508160005260206000209050919050565b60006020601f8301049050919050565b600082821b905092915050565b6000600883026200035a7fffffffffffffffffffffffffffffffffffffffffffffffffffffffffffffffff826200031b565b6200036686836200031b565b95508019841693508086168417925050509392505050565b6000819050919050565b6000819050919050565b6000620003b3620003ad620003a7846200037e565b62000388565b6200037e565b9050919050565b6000819050919050565b620003cf8362000392565b620003e7620003de82620003ba565b84845462000328565b825550505050565b600090565b620003fe620003ef565b6200040b818484620003c4565b505050565b5b81811015620004335762000427600082620003f4565b60018101905062000411565b5050565b601f82111562000482576200044c81620002f6565b62000457846200030b565b8101602085101562000467578190505b6200047f62000476856200030b565b83018262000410565b50505b505050565b600082821c905092915050565b6000620004a76000198460080262000487565b1980831691505092915050565b6000620004c2838362000494565b9150826002028217905092915050565b620004dd8262000287565b67ffffffffffffffff811115620004f957620004f86200009e565b5b620005058254620002c1565b6200051282828562000437565b600060209050601f8311600181146200054a576000841562000535578287015190505b620005418582620004b4565b865550620005b1565b601f1984166200055a86620002f6565b60005b8281101562000584578489015182556001820191506020850194506020810190506200055d565b86831015620005a45784890151620005a0601f89168262000494565b8355505b6001600288020188555050505b505050505050565b61268580620005c96000396000f3fe608060405234801561001057600080fd5b50600436106101005760003560e01c806370a0823111610097578063c87b56dd11610066578063c87b56dd146102a9578063d082e381146102d9578063e985e9c5146102f7578063eacabe141461032757610100565b806370a082311461022357806395d89b4114610253578063a22cb46514610271578063b88d4fde1461028d57610100565b806323b872dd116100d357806323b872dd1461019f57806342842e0e146101bb57806342966c68146101d75780636352211e146101f357610100565b806301ffc9a71461010557806306fdde0314610135578063081812fc14610153578063095ea7b314610183575b600080fd5b61011f600480360381019061011a9190611a41565b610357565b60405161012c9190611a89565b60405180910390f35b61013d6103b8565b60405161014a9190611b34565b60405180910390f35b61016d60048036038101906101689190611b8c565b61044a565b60405161017a9190611bfa565b60405180910390f35b61019d60048036038101906101989190611c41565b610466565b005b6101b960048036038101906101b49190611c81565b61047c565b005b6101d560048036038101906101d09190611c81565b61057e565b005b6101f160048036038101906101ec9190611b8c565b61059e565b005b61020d60048036038101906102089190611b8c565b610657565b60405161021a9190611bfa565b60405180910390f35b61023d60048036038101906102389190611cd4565b610669565b60405161024a9190611d10565b60405180910390f35b61025b610723565b6040516102689190611b34565b60405180910390f35b61028b60048036038101906102869190611d57565b6107b5565b005b6102a760048036038101906102a29190611ecc565b6107cb565b005b6102c360048036038101906102be9190611b8c565b6107f0565b6040516102d09190611b34565b60405180910390f35b6102e1610903565b6040516102ee9190611d10565b60405180910390f35b610311600480360381019061030c9190611f4f565b610909565b60405161031e9190611a89565b60405180910390f35b610341600480360381019061033c9190612030565b61099d565b60405161034e9190611d10565b60405180910390f35b6000634906490660e01b7bffffffffffffffffffffffffffffffffffffffffffffffffffffffff1916827bffffffffffffffffffffffffffffffffffffffffffffffffffffffff191614806103b157506103b082610a2b565b5b9050919050565b6060600080546103c7906120bb565b80601f01602080910402602001604051908101604052809291908181526020018280546103f3906120bb565b80156104405780601f1061041557610100808354040283529160200191610440565b820191906000526020600020905b81548152906001019060200180831161042357829003601f168201915b5050505050905090565b600061045582610b0d565b5061045f82610b95565b9050919050565b6104788282610473610bd2565b610bda565b5050565b600073ffffffffffffffffffffffffffffffffffffffff168273ffffffffffffffffffffffffffffffffffffffff16036104ee5760006040517f64a0ae920000000000000000000000000000000000000000000000000000000081526004016104e59190611bfa565b60405180910390fd5b600061050283836104fd610bd2565b610bec565b90508373ffffffffffffffffffffffffffffffffffffffff168173ffffffffffffffffffffffffffffffffffffffff1614610578578382826040517f64283d7b00000000000000000000000000000000000000000000000000000000815260040161056f939291906120ec565b60405180910390fd5b50505050565b610599838383604051806020016040528060008152506107cb565b505050565b3373ffffffffffffffffffffffffffffffffffffffff166105be82610657565b73ffffffffffffffffffffffffffffffffffffffff1614610614576040517f08c379a000000000000000000000000000000000000000000000000000000000815260040161060b9061216f565b60405180910390fd5b61061d81610e06565b7f3c176691ca154a2f6fe978a2a633a33ee77dbe2902e67a75400720845a4b2ce18160405161064c9190611d10565b60405180910390a150565b600061066282610b0d565b9050919050565b60008073ffffffffffffffffffffffffffffffffffffffff168273ffffffffffffffffffffffffffffffffffffffff16036106dc5760006040517f89c62b640000000000000000000000000000000000000000000000000000000081526004016106d39190611bfa565b60405180910390fd5b600360008373ffffffffffffffffffffffffffffffffffffffff1673ffffffffffffffffffffffffffffffffffffffff168152602001908152602001600020549050919050565b606060018054610732906120bb565b80601f016020809104026020016040519081016040528092919081815260200182805461075e906120bb565b80156107ab5780601f10610780576101008083540402835291602001916107ab565b820191906000526020600020905b81548152906001019060200180831161078e57829003601f168201915b5050505050905090565b6107c76107c0610bd2565b8383610e8c565b5050565b6107d684848461047c565b6107ea6107e1610bd2565b85858585610ffb565b50505050565b60606107fb82610b0d565b50600060066000848152602001908152602001600020805461081c906120bb565b80601f0160208091040260200160405190810160405280929190818152602001828054610848906120bb565b80156108955780601f1061086a57610100808354040283529160200191610895565b820191906000526020600020905b81548152906001019060200180831161087857829003601f168201915b5050505050905060006108a66111ac565b905060008151036108bb5781925050506108fe565b6000825111156108f05780826040516020016108d89291906121cb565b604051602081830303815290604052925050506108fe565b6108f9846111c3565b925050505b919050565b60075481565b6000600560008473ffffffffffffffffffffffffffffffffffffffff1673ffffffffffffffffffffffffffffffffffffffff16815260200190815260200160002060008373ffffffffffffffffffffffffffffffffffffffff1673ffffffffffffffffffffffffffffffffffffffff16815260200190815260200160002060009054906101000a900460ff16905092915050565b60008060075490506109af848261122c565b6109b9818461124a565b600760008154809291906109cc9061221e565b91905055508373ffffffffffffffffffffffffffffffffffffffff167fd35bb95e09c04b219e35047ce7b7b300e3384264ef84a40456943dbc0fc17c148285604051610a19929190612266565b60405180910390a28091505092915050565b60007f80ac58cd000000000000000000000000000000000000000000000000000000007bffffffffffffffffffffffffffffffffffffffffffffffffffffffff1916827bffffffffffffffffffffffffffffffffffffffffffffffffffffffff19161480610af657507f5b5e139f000000000000000000000000000000000000000000000000000000007bffffffffffffffffffffffffffffffffffffffffffffffffffffffff1916827bffffffffffffffffffffffffffffffffffffffffffffffffffffffff1916145b80610b065750610b05826112a6565b5b9050919050565b600080610b1983611310565b9050600073ffffffffffffffffffffffffffffffffffffffff168173ffffffffffffffffffffffffffffffffffffffff1603610b8c57826040517f7e273289000000000000000000000000000000000000000000000000000000008152600401610b839190611d10565b60405180910390fd5b80915050919050565b60006004600083815260200190815260200160002060009054906101000a900473ffffffffffffffffffffffffffffffffffffffff169050919050565b600033905090565b610be7838383600161134d565b505050565b600080610bf884611310565b9050600073ffffffffffffffffffffffffffffffffffffffff168373ffffffffffffffffffffffffffffffffffffffff1614610c3a57610c39818486611512565b5b600073ffffffffffffffffffffffffffffffffffffffff168173ffffffffffffffffffffffffffffffffffffffff1614610ccb57610c7c60008560008061134d565b6001600360008373ffffffffffffffffffffffffffffffffffffffff1673ffffffffffffffffffffffffffffffffffffffff168152602001908152602001600020600082825403925050819055505b600073ffffffffffffffffffffffffffffffffffffffff168573ffffffffffffffffffffffffffffffffffffffff1614610d4e576001600360008773ffffffffffffffffffffffffffffffffffffffff1673ffffffffffffffffffffffffffffffffffffffff168152602001908152602001600020600082825401925050819055505b846002600086815260200190815260200160002060006101000a81548173ffffffffffffffffffffffffffffffffffffffff021916908373ffffffffffffffffffffffffffffffffffffffff160217905550838573ffffffffffffffffffffffffffffffffffffffff168273ffffffffffffffffffffffffffffffffffffffff167fddf252ad1be2c89b69c2b068fc378daa952ba7f163c4a11628f55a4df523b3ef60405160405180910390a4809150509392505050565b6000610e156000836000610bec565b9050600073ffffffffffffffffffffffffffffffffffffffff168173ffffffffffffffffffffffffffffffffffffffff1603610e8857816040517f7e273289000000000000000000000000000000000000000000000000000000008152600401610e7f9190611d10565b60405180910390fd5b5050565b600073ffffffffffffffffffffffffffffffffffffffff168273ffffffffffffffffffffffffffffffffffffffff1603610efd57816040517f5b08ba18000000000000000000000000000000000000000000000000000000008152600401610ef49190611bfa565b60405180910390fd5b80600560008573ffffffffffffffffffffffffffffffffffffffff1673ffffffffffffffffffffffffffffffffffffffff16815260200190815260200160002060008473ffffffffffffffffffffffffffffffffffffffff1673ffffffffffffffffffffffffffffffffffffffff16815260200190815260200160002060006101000a81548160ff0219169083151502179055508173ffffffffffffffffffffffffffffffffffffffff168373ffffffffffffffffffffffffffffffffffffffff167f17307eab39ab6107e8899845ad3d59bd9653f200f220920489ca2b5937696c3183604051610fee9190611a89565b60405180910390a3505050565b60008373ffffffffffffffffffffffffffffffffffffffff163b11156111a5578273ffffffffffffffffffffffffffffffffffffffff1663150b7a02868685856040518563ffffffff1660e01b815260040161105a94939291906122eb565b6020604051808303816000875af192505050801561109657506040513d601f19601f82011682018060405250810190611093919061234c565b60015b61111a573d80600081146110c6576040519150601f19603f3d011682016040523d82523d6000602084013e6110cb565b606091505b50600081510361111257836040517f64a0ae920000000000000000000000000000000000000000000000000000000081526004016111099190611bfa565b60405180910390fd5b805160208201fd5b63150b7a0260e01b7bffffffffffffffffffffffffffffffffffffffffffffffffffffffff1916817bffffffffffffffffffffffffffffffffffffffffffffffffffffffff1916146111a357836040517f64a0ae9200000000000000000000000000000000000000000000000000000000815260040161119a9190611bfa565b60405180910390fd5b505b5050505050565b606060405180602001604052806000815250905090565b60606111ce82610b0d565b5060006111d96111ac565b905060008151116111f95760405180602001604052806000815250611224565b80611203846115d6565b6040516020016112149291906121cb565b6040516020818303038152906040525b915050919050565b6112468282604051806020016040528060008152506116a4565b5050565b8060066000848152602001908152602001600020908161126a9190612525565b507ff8e1a15aba9398e019f0b49df1a4fde98ee17ae345cb5f6b5e2c27f5033e8ce78260405161129a9190611d10565b60405180910390a15050565b60007f01ffc9a7000000000000000000000000000000000000000000000000000000007bffffffffffffffffffffffffffffffffffffffffffffffffffffffff1916827bffffffffffffffffffffffffffffffffffffffffffffffffffffffff1916149050919050565b60006002600083815260200190815260200160002060009054906101000a900473ffffffffffffffffffffffffffffffffffffffff169050919050565b80806113865750600073ffffffffffffffffffffffffffffffffffffffff168273ffffffffffffffffffffffffffffffffffffffff1614155b156114ba57600061139684610b0d565b9050600073ffffffffffffffffffffffffffffffffffffffff168373ffffffffffffffffffffffffffffffffffffffff161415801561140157508273ffffffffffffffffffffffffffffffffffffffff168173ffffffffffffffffffffffffffffffffffffffff1614155b801561141457506114128184610909565b155b1561145657826040517fa9fbf51f00000000000000000000000000000000000000000000000000000000815260040161144d9190611bfa565b60405180910390fd5b81156114b857838573ffffffffffffffffffffffffffffffffffffffff168273ffffffffffffffffffffffffffffffffffffffff167f8c5be1e5ebec7d5bd14f71427d1e84f3dd0314c0f7b2291e5b200ac8c7c3b92560405160405180910390a45b505b836004600085815260200190815260200160002060006101000a81548173ffffffffffffffffffffffffffffffffffffffff021916908373ffffffffffffffffffffffffffffffffffffffff16021790555050505050565b61151d8383836116c8565b6115d157600073ffffffffffffffffffffffffffffffffffffffff168373ffffffffffffffffffffffffffffffffffffffff160361159257806040517f7e2732890000000000000000000000000000000000000000000000000000000081526004016115899190611d10565b60405180910390fd5b81816040517f177e802f0000000000000000000000000000000000000000000000000000000081526004016115c89291906125f7565b60405180910390fd5b505050565b6060600060016115e584611789565b01905060008167ffffffffffffffff81111561160457611603611da1565b5b6040519080825280601f01601f1916602001820160405280156116365781602001600182028036833780820191505090505b509050600082602083010190505b600115611699578080600190039150507f3031323334353637383961626364656600000000000000000000000000000000600a86061a8153600a858161168d5761168c612620565b5b04945060008503611644575b819350505050919050565b6116ae83836118dc565b6116c36116b9610bd2565b6000858585610ffb565b505050565b60008073ffffffffffffffffffffffffffffffffffffffff168373ffffffffffffffffffffffffffffffffffffffff161415801561178057508273ffffffffffffffffffffffffffffffffffffffff168473ffffffffffffffffffffffffffffffffffffffff16148061174157506117408484610909565b5b8061177f57508273ffffffffffffffffffffffffffffffffffffffff1661176783610b95565b73ffffffffffffffffffffffffffffffffffffffff16145b5b90509392505050565b600080600090507a184f03e93ff9f4daa797ed6e38ed64bf6a1f01000000000000000083106117e7577a184f03e93ff9f4daa797ed6e38ed64bf6a1f01000000000000000083816117dd576117dc612620565b5b0492506040810190505b6d04ee2d6d415b85acef81000000008310611824576d04ee2d6d415b85acef8100000000838161181a57611819612620565b5b0492506020810190505b662386f26fc10000831061185357662386f26fc10000838161184957611848612620565b5b0492506010810190505b6305f5e100831061187c576305f5e100838161187257611871612620565b5b0492506008810190505b61271083106118a157612710838161189757611896612620565b5b0492506004810190505b606483106118c457606483816118ba576118b9612620565b5b0492506002810190505b600a83106118d3576001810190505b80915050919050565b600073ffffffffffffffffffffffffffffffffffffffff168273ffffffffffffffffffffffffffffffffffffffff160361194e5760006040517f64a0ae920000000000000000000000000000000000000000000000000000000081526004016119459190611bfa565b60405180910390fd5b600061195c83836000610bec565b9050600073ffffffffffffffffffffffffffffffffffffffff168173ffffffffffffffffffffffffffffffffffffffff16146119d05760006040517f73c6ac6e0000000000000000000000000000000000000000000000000000000081526004016119c79190611bfa565b60405180910390fd5b505050565b6000604051905090565b600080fd5b600080fd5b60007fffffffff0000000000000000000000000000000000000000000000000000000082169050919050565b611a1e816119e9565b8114611a2957600080fd5b50565b600081359050611a3b81611a15565b92915050565b600060208284031215611a5757611a566119df565b5b6000611a6584828501611a2c565b91505092915050565b60008115159050919050565b611a8381611a6e565b82525050565b6000602082019050611a9e6000830184611a7a565b92915050565b600081519050919050565b600082825260208201905092915050565b60005b83811015611ade578082015181840152602081019050611ac3565b60008484015250505050565b6000601f19601f8301169050919050565b6000611b0682611aa4565b611b108185611aaf565b9350611b20818560208601611ac0565b611b2981611aea565b840191505092915050565b60006020820190508181036000830152611b4e8184611afb565b905092915050565b6000819050919050565b611b6981611b56565b8114611b7457600080fd5b50565b600081359050611b8681611b60565b92915050565b600060208284031215611ba257611ba16119df565b5b6000611bb084828501611b77565b91505092915050565b600073ffffffffffffffffffffffffffffffffffffffff82169050919050565b6000611be482611bb9565b9050919050565b611bf481611bd9565b82525050565b6000602082019050611c0f6000830184611beb565b92915050565b611c1e81611bd9565b8114611c2957600080fd5b50565b600081359050611c3b81611c15565b92915050565b60008060408385031215611c5857611c576119df565b5b6000611c6685828601611c2c565b9250506020611c7785828601611b77565b9150509250929050565b600080600060608486031215611c9a57611c996119df565b5b6000611ca886828701611c2c565b9350506020611cb986828701611c2c565b9250506040611cca86828701611b77565b9150509250925092565b600060208284031215611cea57611ce96119df565b5b6000611cf884828501611c2c565b91505092915050565b611d0a81611b56565b82525050565b6000602082019050611d256000830184611d01565b92915050565b611d3481611a6e565b8114611d3f57600080fd5b50565b600081359050611d5181611d2b565b92915050565b60008060408385031215611d6e57611d6d6119df565b5b6000611d7c85828601611c2c565b9250506020611d8d85828601611d42565b9150509250929050565b600080fd5b600080fd5b7f4e487b7100000000000000000000000000000000000000000000000000000000600052604160045260246000fd5b611dd982611aea565b810181811067ffffffffffffffff82111715611df857611df7611da1565b5b80604052505050565b6000611e0b6119d5565b9050611e178282611dd0565b919050565b600067ffffffffffffffff821115611e3757611e36611da1565b5b611e4082611aea565b9050602081019050919050565b82818337600083830152505050565b6000611e6f611e6a84611e1c565b611e01565b905082815260208101848484011115611e8b57611e8a611d9c565b5b611e96848285611e4d565b509392505050565b600082601f830112611eb357611eb2611d97565b5b8135611ec3848260208601611e5c565b91505092915050565b60008060008060808587031215611ee657611ee56119df565b5b6000611ef487828801611c2c565b9450506020611f0587828801611c2c565b9350506040611f1687828801611b77565b925050606085013567ffffffffffffffff811115611f3757611f366119e4565b5b611f4387828801611e9e565b91505092959194509250565b60008060408385031215611f6657611f656119df565b5b6000611f7485828601611c2c565b9250506020611f8585828601611c2c565b9150509250929050565b600067ffffffffffffffff821115611faa57611fa9611da1565b5b611fb382611aea565b9050602081019050919050565b6000611fd3611fce84611f8f565b611e01565b905082815260208101848484011115611fef57611fee611d9c565b5b611ffa848285611e4d565b509392505050565b600082601f83011261201757612016611d97565b5b8135612027848260208601611fc0565b91505092915050565b60008060408385031215612047576120466119df565b5b600061205585828601611c2c565b925050602083013567ffffffffffffffff811115612076576120756119e4565b5b61208285828601612002565b9150509250929050565b7f4e487b7100000000000000000000000000000000000000000000000000000000600052602260045260246000fd5b600060028204905060018216806120d357607f821691505b6020821081036120e6576120e561208c565b5b50919050565b60006060820190506121016000830186611beb565b61210e6020830185611d01565b61211b6040830184611beb565b949350505050565b7f4f6e6c79206f776e65722063616e206275726e00000000000000000000000000600082015250565b6000612159601383611aaf565b915061216482612123565b602082019050919050565b600060208201905081810360008301526121888161214c565b9050919050565b600081905092915050565b60006121a582611aa4565b6121af818561218f565b93506121bf818560208601611ac0565b80840191505092915050565b60006121d7828561219a565b91506121e3828461219a565b91508190509392505050565b7f4e487b7100000000000000000000000000000000000000000000000000000000600052601160045260246000fd5b600061222982611b56565b91507fffffffffffffffffffffffffffffffffffffffffffffffffffffffffffffffff820361225b5761225a6121ef565b5b600182019050919050565b600060408201905061227b6000830185611d01565b818103602083015261228d8184611afb565b90509392505050565b600081519050919050565b600082825260208201905092915050565b60006122bd82612296565b6122c781856122a1565b93506122d7818560208601611ac0565b6122e081611aea565b840191505092915050565b60006080820190506123006000830187611beb565b61230d6020830186611beb565b61231a6040830185611d01565b818103606083015261232c81846122b2565b905095945050505050565b60008151905061234681611a15565b92915050565b600060208284031215612362576123616119df565b5b600061237084828501612337565b91505092915050565b60008190508160005260206000209050919050565b60006020601f8301049050919050565b600082821b905092915050565b6000600883026123db7fffffffffffffffffffffffffffffffffffffffffffffffffffffffffffffffff8261239e565b6123e5868361239e565b95508019841693508086168417925050509392505050565b6000819050919050565b600061242261241d61241884611b56565b6123fd565b611b56565b9050919050565b6000819050919050565b61243c83612407565b61245061244882612429565b8484546123ab565b825550505050565b600090565b612465612458565b612470818484612433565b505050565b5b818110156124945761248960008261245d565b600181019050612476565b5050565b601f8211156124d9576124aa81612379565b6124b38461238e565b810160208510156124c2578190505b6124d66124ce8561238e565b830182612475565b50505b505050565b600082821c905092915050565b60006124fc600019846008026124de565b1980831691505092915050565b600061251583836124eb565b9150826002028217905092915050565b61252e82611aa4565b67ffffffffffffffff81111561254757612546611da1565b5b61255182546120bb565b61255c828285612498565b600060209050601f83116001811461258f576000841561257d578287015190505b6125878582612509565b8655506125ef565b601f19841661259d86612379565b60005b828110156125c5578489015182556001820191506020850194506020810190506125a0565b868310156125e257848901516125de601f8916826124eb565b8355505b6001600288020188555050505b505050505050565b600060408201905061260c6000830185611beb565b6126196020830184611d01565b9392505050565b7f4e487b7100000000000000000000000000000000000000000000000000000000600052601260045260246000fdfea2646970667358221220489368d6aa342d043cd6631855ffcc193ca9c8d587617d55929bf66ecfe255d764736f6c63430008140033",
  "linkReferences": {},
  "deployedLinkReferences": {}
}